{
  "abi": [
    {
      "inputs": [
        {
          "internalType": "string",
          "name": "name_",
          "type": "string"
        },
        {
          "internalType": "string",
          "name": "symbol_",
          "type": "string"
        }
      ],
      "stateMutability": "nonpayable",
      "type": "constructor"
    },
    {
      "anonymous": false,
      "inputs": [
        {
          "indexed": false,
          "internalType": "string[]",
          "name": "keys",
          "type": "string[]"
        }
      ],
      "name": "AddExtendKeys",
      "type": "event"
    },
    {
      "anonymous": false,
      "inputs": [
        {
          "indexed": true,
          "internalType": "address",
          "name": "usr",
          "type": "address"
        }
      ],
      "name": "Admin",
      "type": "event"
    },
    {
      "anonymous": false,
      "inputs": [
        {
          "indexed": true,
          "internalType": "address",
          "name": "owner",
          "type": "address"
        },
        {
          "indexed": true,
          "internalType": "address",
          "name": "approved",
          "type": "address"
        },
        {
          "indexed": true,
          "internalType": "uint256",
          "name": "tokenId",
          "type": "uint256"
        }
      ],
      "name": "Approval",
      "type": "event"
    },
    {
      "anonymous": false,
      "inputs": [
        {
          "indexed": true,
          "internalType": "address",
          "name": "owner",
          "type": "address"
        },
        {
          "indexed": true,
          "internalType": "address",
          "name": "operator",
          "type": "address"
        },
        {
          "indexed": false,
          "internalType": "bool",
          "name": "approved",
          "type": "bool"
        }
      ],
      "name": "ApprovalForAll",
      "type": "event"
    },
    {
      "anonymous": false,
      "inputs": [
        {
          "indexed": true,
          "internalType": "uint256",
          "name": "deviceId",
          "type": "uint256"
        }
      ],
      "name": "BurnDevice",
      "type": "event"
    },
    {
      "anonymous": false,
      "inputs": [
        {
          "indexed": true,
          "internalType": "address",
          "name": "usr",
          "type": "address"
        }
      ],
      "name": "Deny",
      "type": "event"
    },
    {
      "anonymous": false,
      "inputs": [
        {
          "indexed": false,
          "internalType": "string",
          "name": "code",
          "type": "string"
        },
        {
          "indexed": true,
          "internalType": "address",
          "name": "usr",
          "type": "address"
        },
        {
          "indexed": false,
          "internalType": "uint256",
          "name": "deviceId",
          "type": "uint256"
        }
      ],
      "name": "MintDevice",
      "type": "event"
    },
    {
      "anonymous": false,
      "inputs": [
        {
          "indexed": true,
          "internalType": "address",
          "name": "usr",
          "type": "address"
        }
      ],
      "name": "Permission",
      "type": "event"
    },
    {
      "anonymous": false,
      "inputs": [
        {
          "indexed": false,
          "internalType": "string[]",
          "name": "keys",
          "type": "string[]"
        }
      ],
      "name": "RemoveExtendKeys",
      "type": "event"
    },
    {
      "anonymous": false,
      "inputs": [
        {
          "indexed": true,
          "internalType": "uint256",
          "name": "deviceId",
          "type": "uint256"
        },
        {
          "indexed": false,
          "internalType": "address",
          "name": "approved",
          "type": "address"
        }
      ],
      "name": "SetApproved",
      "type": "event"
    },
    {
      "anonymous": false,
      "inputs": [
        {
          "indexed": true,
          "internalType": "uint256",
          "name": "deviceId",
          "type": "uint256"
        },
        {
          "indexed": false,
          "internalType": "string[]",
          "name": "keys",
          "type": "string[]"
        },
        {
          "indexed": false,
          "internalType": "string[]",
          "name": "values",
          "type": "string[]"
        }
      ],
      "name": "SetExtend",
      "type": "event"
    },
    {
      "anonymous": false,
      "inputs": [
        {
          "indexed": true,
          "internalType": "uint256",
          "name": "deviceId",
          "type": "uint256"
        },
        {
          "indexed": false,
          "internalType": "uint8",
          "name": "status",
          "type": "uint8"
        }
      ],
      "name": "SetStatus",
      "type": "event"
    },
    {
      "anonymous": false,
      "inputs": [
        {
          "indexed": true,
          "internalType": "address",
          "name": "from",
          "type": "address"
        },
        {
          "indexed": true,
          "internalType": "address",
          "name": "to",
          "type": "address"
        },
        {
          "indexed": true,
          "internalType": "uint256",
          "name": "tokenId",
          "type": "uint256"
        }
      ],
      "name": "Transfer",
      "type": "event"
    },
    {
      "inputs": [
        {
          "internalType": "string[]",
          "name": "keys_",
          "type": "string[]"
        }
      ],
      "name": "addKeys",
      "outputs": [],
      "stateMutability": "nonpayable",
      "type": "function"
    },
    {
      "inputs": [
        {
          "internalType": "address",
          "name": "to_",
          "type": "address"
        }
      ],
      "name": "addMinter",
      "outputs": [],
      "stateMutability": "nonpayable",
      "type": "function"
    },
    {
      "inputs": [
        {
          "internalType": "address",
          "name": "to_",
          "type": "address"
        }
      ],
      "name": "addPermission",
      "outputs": [],
      "stateMutability": "nonpayable",
      "type": "function"
    },
    {
      "inputs": [
        {
          "internalType": "address",
          "name": "to",
          "type": "address"
        },
        {
          "internalType": "uint256",
          "name": "tokenId",
          "type": "uint256"
        }
      ],
      "name": "approve",
      "outputs": [],
      "stateMutability": "nonpayable",
      "type": "function"
    },
    {
      "inputs": [
        {
          "internalType": "address",
          "name": "owner",
          "type": "address"
        }
      ],
      "name": "balanceOf",
      "outputs": [
        {
          "internalType": "uint256",
          "name": "",
          "type": "uint256"
        }
      ],
      "stateMutability": "view",
      "type": "function"
    },
    {
      "inputs": [
        {
          "internalType": "address",
          "name": "usr_",
          "type": "address"
        },
        {
          "components": [
            {
              "internalType": "string",
              "name": "code",
              "type": "string"
            },
            {
              "internalType": "string",
              "name": "name",
              "type": "string"
            },
            {
              "internalType": "string",
              "name": "firm",
              "type": "string"
            },
            {
              "internalType": "address",
              "name": "iot",
              "type": "address"
            },
            {
              "internalType": "address",
              "name": "manager",
              "type": "address"
            }
          ],
          "internalType": "struct DeviceBase[]",
          "name": "bases_",
          "type": "tuple[]"
        }
      ],
      "name": "batchMint",
      "outputs": [],
      "stateMutability": "nonpayable",
      "type": "function"
    },
    {
      "inputs": [
        {
          "internalType": "uint256",
          "name": "deviceId_",
          "type": "uint256"
        }
      ],
      "name": "burn",
      "outputs": [],
      "stateMutability": "nonpayable",
      "type": "function"
    },
    {
      "inputs": [
        {
          "internalType": "address",
          "name": "usr",
          "type": "address"
        }
      ],
      "name": "deny",
      "outputs": [],
      "stateMutability": "nonpayable",
      "type": "function"
    },
    {
      "inputs": [
        {
          "internalType": "uint256",
          "name": "tokenId_",
          "type": "uint256"
        },
        {
          "internalType": "string[]",
          "name": "keys_",
          "type": "string[]"
        },
        {
          "internalType": "string[]",
          "name": "values_",
          "type": "string[]"
        }
      ],
      "name": "extend",
      "outputs": [],
      "stateMutability": "nonpayable",
      "type": "function"
    },
    {
      "inputs": [
        {
          "internalType": "uint256",
          "name": "tokenId",
          "type": "uint256"
        }
      ],
      "name": "getApproved",
      "outputs": [
        {
          "internalType": "address",
          "name": "",
          "type": "address"
        }
      ],
      "stateMutability": "view",
      "type": "function"
    },
    {
      "inputs": [],
      "name": "getKeys",
      "outputs": [
        {
          "internalType": "string[]",
          "name": "",
          "type": "string[]"
        }
      ],
      "stateMutability": "view",
      "type": "function"
    },
    {
      "inputs": [
        {
          "internalType": "uint256",
          "name": "deviceId_",
          "type": "uint256"
        }
      ],
      "name": "iotOf",
      "outputs": [
        {
          "internalType": "address",
          "name": "",
          "type": "address"
        }
      ],
      "stateMutability": "view",
      "type": "function"
    },
    {
      "inputs": [
        {
          "internalType": "address",
          "name": "owner",
          "type": "address"
        },
        {
          "internalType": "address",
          "name": "operator",
          "type": "address"
        }
      ],
      "name": "isApprovedForAll",
      "outputs": [
        {
          "internalType": "bool",
          "name": "",
          "type": "bool"
        }
      ],
      "stateMutability": "view",
      "type": "function"
    },
    {
      "inputs": [
        {
          "internalType": "uint256",
          "name": "deviceId_",
          "type": "uint256"
        }
      ],
      "name": "isEnable",
      "outputs": [
        {
          "internalType": "bool",
          "name": "",
          "type": "bool"
        }
      ],
      "stateMutability": "view",
      "type": "function"
    },
    {
      "inputs": [
        {
          "internalType": "address",
          "name": "usr",
          "type": "address"
        },
        {
          "internalType": "uint256",
          "name": "deviceId_",
          "type": "uint256"
        }
      ],
      "name": "isIot",
      "outputs": [
        {
          "internalType": "bool",
          "name": "",
          "type": "bool"
        }
      ],
      "stateMutability": "view",
      "type": "function"
    },
    {
      "inputs": [
        {
          "internalType": "address",
          "name": "usr_",
          "type": "address"
        },
        {
          "components": [
            {
              "internalType": "string",
              "name": "code",
              "type": "string"
            },
            {
              "internalType": "string",
              "name": "name",
              "type": "string"
            },
            {
              "internalType": "string",
              "name": "firm",
              "type": "string"
            },
            {
              "internalType": "address",
              "name": "iot",
              "type": "address"
            },
            {
              "internalType": "address",
              "name": "manager",
              "type": "address"
            }
          ],
          "internalType": "struct DeviceBase",
          "name": "base_",
          "type": "tuple"
        }
      ],
      "name": "mint",
      "outputs": [
        {
          "internalType": "uint256",
          "name": "",
          "type": "uint256"
        }
      ],
      "stateMutability": "nonpayable",
      "type": "function"
    },
    {
      "inputs": [],
      "name": "name",
      "outputs": [
        {
          "internalType": "string",
          "name": "",
          "type": "string"
        }
      ],
      "stateMutability": "view",
      "type": "function"
    },
    {
      "inputs": [
        {
          "internalType": "uint256",
          "name": "tokenId",
          "type": "uint256"
        }
      ],
      "name": "ownerOf",
      "outputs": [
        {
          "internalType": "address",
          "name": "",
          "type": "address"
        }
      ],
      "stateMutability": "view",
      "type": "function"
    },
    {
      "inputs": [
        {
          "internalType": "string[]",
          "name": "keys_",
          "type": "string[]"
        }
      ],
      "name": "removeKeys",
      "outputs": [],
      "stateMutability": "nonpayable",
      "type": "function"
    },
    {
      "inputs": [
        {
          "internalType": "address",
          "name": "from",
          "type": "address"
        },
        {
          "internalType": "address",
          "name": "to",
          "type": "address"
        },
        {
          "internalType": "uint256",
          "name": "tokenId",
          "type": "uint256"
        }
      ],
      "name": "safeTransferFrom",
      "outputs": [],
      "stateMutability": "nonpayable",
      "type": "function"
    },
    {
      "inputs": [
        {
          "internalType": "address",
          "name": "from",
          "type": "address"
        },
        {
          "internalType": "address",
          "name": "to",
          "type": "address"
        },
        {
          "internalType": "uint256",
          "name": "tokenId",
          "type": "uint256"
        },
        {
          "internalType": "bytes",
          "name": "data",
          "type": "bytes"
        }
      ],
      "name": "safeTransferFrom",
      "outputs": [],
      "stateMutability": "nonpayable",
      "type": "function"
    },
    {
      "inputs": [
        {
          "internalType": "address",
          "name": "operator",
          "type": "address"
        },
        {
          "internalType": "bool",
          "name": "approved",
          "type": "bool"
        }
      ],
      "name": "setApprovalForAll",
      "outputs": [],
      "stateMutability": "nonpayable",
      "type": "function"
    },
    {
      "inputs": [
        {
          "internalType": "uint256",
          "name": "deviceId_",
          "type": "uint256"
        },
        {
          "internalType": "address",
          "name": "approved_",
          "type": "address"
        }
      ],
      "name": "setApproveManager",
      "outputs": [],
      "stateMutability": "nonpayable",
      "type": "function"
    },
    {
      "inputs": [
        {
          "internalType": "uint256",
          "name": "deviceId_",
          "type": "uint256"
        }
      ],
      "name": "start",
      "outputs": [],
      "stateMutability": "nonpayable",
      "type": "function"
    },
    {
      "inputs": [
        {
          "internalType": "uint256",
          "name": "deviceId_",
          "type": "uint256"
        }
      ],
      "name": "stop",
      "outputs": [],
      "stateMutability": "nonpayable",
      "type": "function"
    },
    {
      "inputs": [],
      "name": "supply",
      "outputs": [
        {
          "internalType": "uint256",
          "name": "",
          "type": "uint256"
        }
      ],
      "stateMutability": "view",
      "type": "function"
    },
    {
      "inputs": [
        {
          "internalType": "bytes4",
          "name": "interfaceId",
          "type": "bytes4"
        }
      ],
      "name": "supportsInterface",
      "outputs": [
        {
          "internalType": "bool",
          "name": "",
          "type": "bool"
        }
      ],
      "stateMutability": "view",
      "type": "function"
    },
    {
      "inputs": [],
      "name": "symbol",
      "outputs": [
        {
          "internalType": "string",
          "name": "",
          "type": "string"
        }
      ],
      "stateMutability": "view",
      "type": "function"
    },
    {
      "inputs": [
        {
          "internalType": "address",
          "name": "iot",
          "type": "address"
        }
      ],
      "name": "tokenIdByIot",
      "outputs": [
        {
          "internalType": "uint256",
          "name": "",
          "type": "uint256"
        }
      ],
      "stateMutability": "view",
      "type": "function"
    },
    {
      "inputs": [
        {
          "internalType": "uint256",
          "name": "tokenId_",
          "type": "uint256"
        }
      ],
      "name": "tokenURI",
      "outputs": [
        {
          "internalType": "string",
          "name": "",
          "type": "string"
        }
      ],
      "stateMutability": "view",
      "type": "function"
    },
    {
      "inputs": [
        {
          "internalType": "address",
          "name": "from",
          "type": "address"
        },
        {
          "internalType": "address",
          "name": "to",
          "type": "address"
        },
        {
          "internalType": "uint256",
          "name": "tokenId",
          "type": "uint256"
        }
      ],
      "name": "transferFrom",
      "outputs": [],
      "stateMutability": "nonpayable",
      "type": "function"
    }
  ],
  "bytecode": {
    "object": "0x60806040523480156200001157600080fd5b506040516200360f3803806200360f833981016040819052620000349162000186565b818160016200004483826200027f565b5060026200005382826200027f565b505033600090815260208181526040808320600190819055600c819055600a80549182018155845281519283019091529181527fc65a7bb8d6351c1cf70c95a316cc6a92839c986682d98bc35f958f4883f9d2a89091019150620000b890826200027f565b5050506200034b565b634e487b7160e01b600052604160045260246000fd5b600082601f830112620000e957600080fd5b81516001600160401b0380821115620001065762000106620000c1565b604051601f8301601f19908116603f01168101908282118183101715620001315762000131620000c1565b816040528381526020925086838588010111156200014e57600080fd5b600091505b8382101562000172578582018301518183018401529082019062000153565b600093810190920192909252949350505050565b600080604083850312156200019a57600080fd5b82516001600160401b0380821115620001b257600080fd5b620001c086838701620000d7565b93506020850151915080821115620001d757600080fd5b50620001e685828601620000d7565b9150509250929050565b600181811c908216806200020557607f821691505b6020821081036200022657634e487b7160e01b600052602260045260246000fd5b50919050565b601f8211156200027a57600081815260208120601f850160051c81016020861015620002555750805b601f850160051c820191505b81811015620002765782815560010162000261565b5050505b505050565b81516001600160401b038111156200029b576200029b620000c1565b620002b381620002ac8454620001f0565b846200022c565b602080601f831160018114620002eb5760008415620002d25750858301515b600019600386901b1c1916600185901b17855562000276565b600085815260208120601f198616915b828110156200031c57888601518255948401946001909101908401620002fb565b50858210156200033b5787850151600019600388901b60f8161c191681555b5050505050600190811b01905550565b6132b4806200035b6000396000f3fe608060405234801561001057600080fd5b50600436106101e55760003560e01c80636352211e1161010f5780639c52a7f1116100a2578063c87b56dd11610071578063c87b56dd14610444578063cb46485a14610457578063cb67d3c61461046a578063e985e9c51461047d57600080fd5b80639c52a7f1146103f8578063a22cb4651461040b578063b7cda8251461041e578063b88d4fde1461043157600080fd5b806391efe4cd116100de57806391efe4cd146103ca57806395805dad146103dd57806395d89b41146103f0578063983b2d561461031657600080fd5b80636352211e146103655780636bdc7f651461037857806370a082311461038b57806371b6aa391461039e57600080fd5b806323b872dd1161018757806342966c681161015657806342966c68146103035780634d0a5dbd146103165780635bf5be20146103295780636299f8cf1461035257600080fd5b806323b872dd146102a15780633e209513146102b4578063419d1b3e146102c757806342842e0e146102f057600080fd5b806306fdde03116101c357806306fdde0314610239578063081812fc1461024e578063095ea7b3146102795780632150c5181461028c57600080fd5b806301ffc9a7146101ea57806302fb7e7314610212578063047fc9aa14610227575b600080fd5b6101fd6101f83660046124d8565b6104b9565b60405190151581526020015b60405180910390f35b610225610220366004612540565b61050b565b005b600d545b604051908152602001610209565b6102416107a7565b60405161020991906125d1565b61026161025c3660046125e4565b610839565b6040516001600160a01b039091168152602001610209565b610225610287366004612619565b610860565b610294610975565b6040516102099190612643565b6102256102af3660046126a5565b610acc565b6101fd6102c2366004612619565b610afd565b61022b6102d53660046126e1565b6001600160a01b031660009081526008602052604090205490565b6102256102fe3660046126a5565b610b50565b6102256103113660046125e4565b610b6b565b6102256103243660046126e1565b610cb5565b6101fd6103373660046125e4565b60009081526007602052604090206005015460ff1660011490565b6102256103603660046125e4565b610d29565b6102616103733660046125e4565b610d37565b61022b6103863660046126fc565b610d97565b61022b6103993660046126e1565b610dea565b6102616103ac3660046125e4565b6000908152600760205260409020600301546001600160a01b031690565b6102256103d8366004612540565b610e70565b6102256103eb3660046125e4565b610fd4565b610241610fdf565b6102256104063660046126e1565b610fee565b610225610419366004612750565b611061565b61022561042c366004612781565b611070565b61022561043f3660046127c3565b611139565b6102416104523660046125e4565b611171565b61022561046536600461289e565b611436565b6102256104783660046128f0565b6114c8565b6101fd61048b366004612969565b6001600160a01b03918216600090815260066020908152604080832093909416825291909152205460ff1690565b60006001600160e01b031982166380ac58cd60e01b14806104ea57506001600160e01b03198216635b5e139f60e01b145b8061050557506301ffc9a760e01b6001600160e01b03198316145b92915050565b336000908152602081905260409020546001146105435760405162461bcd60e51b815260040161053a90612993565b60405180910390fd5b8060005b81811015610768576000848483818110610563576105636129bb565b905060200281019061057591906129d1565b8080601f01602080910402602001604051908101604052809392919081815260200183838082843760009201919091525050604051929350600b926105bd9250849150612a17565b90815260200160405180910390205460001461075757600a546000906105e590600190612a49565b90506000600a82815481106105fc576105fc6129bb565b90600052602060002001805461061190612a5c565b80601f016020809104026020016040519081016040528092919081815260200182805461063d90612a5c565b801561068a5780601f1061065f5761010080835404028352916020019161068a565b820191906000526020600020905b81548152906001019060200180831161066d57829003601f168201915b505050505090506000600b846040516106a39190612a17565b908152602001604051809103902054905081600a82815481106106c8576106c86129bb565b9060005260206000200190816106de9190612ade565b5080600b836040516106f09190612a17565b908152602001604051809103902081905550600b846040516107129190612a17565b908152602001604051809103902060009055600a80548061073557610735612b9d565b6001900381819060005260206000200160006107519190612434565b90555050505b61076082612bb3565b915050610547565b507f631ff444a6280523f62fed91f2ba78f38d5ccd1ff2706a881c3ced93b80bd9d6838360405161079a929190612c86565b60405180910390a1505050565b6060600180546107b690612a5c565b80601f01602080910402602001604051908101604052809291908181526020018280546107e290612a5c565b801561082f5780601f106108045761010080835404028352916020019161082f565b820191906000526020600020905b81548152906001019060200180831161081257829003601f168201915b5050505050905090565b60006108448261172a565b506000908152600560205260409020546001600160a01b031690565b600061086b82610d37565b9050806001600160a01b0316836001600160a01b0316036108d85760405162461bcd60e51b815260206004820152602160248201527f4552433732313a20617070726f76616c20746f2063757272656e74206f776e656044820152603960f91b606482015260840161053a565b336001600160a01b03821614806108f457506108f4813361048b565b6109665760405162461bcd60e51b815260206004820152603d60248201527f4552433732313a20617070726f76652063616c6c6572206973206e6f7420746f60448201527f6b656e206f776e6572206f7220617070726f76656420666f7220616c6c000000606482015260840161053a565b6109708383611789565b505050565b600a5460609060009061098a90600190612a49565b6001600160401b038111156109a1576109a16127ad565b6040519080825280602002602001820160405280156109d457816020015b60608152602001906001900390816109bf5790505b50905060015b600a54811015610ac657600a81815481106109f7576109f76129bb565b906000526020600020018054610a0c90612a5c565b80601f0160208091040260200160405190810160405280929190818152602001828054610a3890612a5c565b8015610a855780601f10610a5a57610100808354040283529160200191610a85565b820191906000526020600020905b815481529060010190602001808311610a6857829003601f168201915b505050505082600183610a989190612a49565b81518110610aa857610aa86129bb565b60200260200101819052508080610abe90612bb3565b9150506109da565b50919050565b610ad633826117f7565b610af25760405162461bcd60e51b815260040161053a90612c9a565b610970838383611876565b6000818152600760205260408120600301546001600160a01b0384811691161480610b4957506000828152600760205260409020600501546001600160a01b0384811661010090920416145b9392505050565b61097083838360405180602001604052806000815250611139565b3360009081526020819052604090205460021480610b985750336000908152602081905260409020546001145b610bb45760405162461bcd60e51b815260040161053a90612ce7565b610bbd816119da565b600081815260076020526040812060038101546001600160a01b0316918181610be68282612434565b610bf4600183016000612434565b610c02600283016000612434565b506003810180546001600160a01b03199081169091556004909101805490911690556005820180546001600160a81b0319169055600682016000610c46828261246e565b610c5460018301600061246e565b505050506001600160a01b0381166000908152600860205260408120819055600d805491610c8183612d0e565b909155505060405182907faf85df479bd2fa28b818621f47385a48b1b50b50b7a735502fbc0da799e3a7d290600090a25050565b33600090815260208190526040902054600114610ce45760405162461bcd60e51b815260040161053a90612993565b6001600160a01b03811660008181526020819052604080822060029055517f6811d3d9793d3c27bdf3a8004dfde8b0e338d25a2a671c07087ffd927ddd883e9190a250565b610d34816000611a6f565b50565b6000818152600360205260408120546001600160a01b0316806105055760405162461bcd60e51b8152602060048201526018602482015277115490cdcc8c4e881a5b9d985b1a59081d1bdad95b88125160421b604482015260640161053a565b3360009081526020819052604081205460021480610dc45750336000908152602081905260409020546001145b610de05760405162461bcd60e51b815260040161053a90612ce7565b610b498383611b20565b60006001600160a01b038216610e545760405162461bcd60e51b815260206004820152602960248201527f4552433732313a2061646472657373207a65726f206973206e6f7420612076616044820152683634b21037bbb732b960b91b606482015260840161053a565b506001600160a01b031660009081526004602052604090205490565b33600090815260208190526040902054600114610e9f5760405162461bcd60e51b815260040161053a90612993565b8060005b81811015610fa2576000848483818110610ebf57610ebf6129bb565b9050602002810190610ed191906129d1565b8080601f01602080910402602001604051908101604052809392919081815260200183838082843760009201919091525050604051929350600b92610f199250849150612a17565b908152602001604051809103902054600003610f9157600a54604051600b90610f43908490612a17565b90815260405190819003602001902055600a80546001810182556000919091527fc65a7bb8d6351c1cf70c95a316cc6a92839c986682d98bc35f958f4883f9d2a801610f8f8282612ade565b505b610f9a82612bb3565b915050610ea3565b507fad3b6f46052885a1a9550c084ac7fd49f687c1e97b4ed4ced3af1a54e6b76f11838360405161079a929190612c86565b610d34816001611a6f565b6060600280546107b690612a5c565b3360009081526020819052604090205460011461101d5760405162461bcd60e51b815260040161053a90612993565b6001600160a01b038116600081815260208190526040808220829055517f184450df2e323acec0ed3b5c7531b81f9b4cdef7914dfd4c0a4317416bb5251b9190a250565b61106c338383611d2a565b5050565b60008281526007602052604090206004015482906001600160a01b031633146110c95760405162461bcd60e51b815260206004820152600b60248201526a3737ba1036b0b730b3b2b960a91b604482015260640161053a565b6000838152600760209081526040918290206005018054610100600160a81b0319166101006001600160a01b03871690810291909117909155915191825284917fd25b491fbe870c41327c2faed5a400a946b40744f1be3b3afc1a0c033366eb73910160405180910390a2505050565b61114333836117f7565b61115f5760405162461bcd60e51b815260040161053a90612c9a565b61116b84848484611df8565b50505050565b606061117c8261172a565b600061118783611e2b565b60008481526007602052604090206003810154600182019060028301906111b6906001600160a01b0316611ebd565b6000888152600760205260409020600401546111da906001600160a01b0316611ebd565b6040516020016111ef96959493929190612d98565b6040516020818303038152906040529050600061120b84610d37565b6000858152600760205260408120600501549192509061010090046001600160a01b0316156112625760008581526007602052604090206005015461125d9061010090046001600160a01b0316611ebd565b611273565b604051806020016040528060008152505b90506000611289836001600160a01b0316611ebd565b60008781526007602052604090206005015483906112a99060ff16611e2b565b6040516020016112bb93929190612e8e565b60408051601f19818403018152828201909152600d82526c2c2022657874656e6473223a5b60981b6020830152915060005b6000888152600760205260409020600601548110156113e357600088815260076020526040902060060180548391908390811061132c5761132c6129bb565b90600052602060002001600760008b81526020019081526020016000206006016001018381548110611360576113606129bb565b9060005260206000200160405160200161137c93929190612f1a565b60408051601f1981840301815291815260008a8152600760205220600601549092506113aa90600190612a49565b81146113d357816040516020016113c19190612f89565b60405160208183030381529060405291505b6113dc81612bb3565b90506112ed565b50806040516020016113f59190612fae565b604051602081830303815290604052905084828260405160200161141b93929190612fd3565b60405160208183030381529060405295505050505050919050565b33600090815260208190526040902054600214806114635750336000908152602081905260409020546001145b61147f5760405162461bcd60e51b815260040161053a90612ce7565b60005b8181101561116b576114b7848484848181106114a0576114a06129bb565b90506020028101906114b29190613037565b611b20565b506114c181612bb3565b9050611482565b60008581526007602052604090206004015485906001600160a01b031633146115215760405162461bcd60e51b815260206004820152600b60248201526a3737ba1036b0b730b3b2b960a91b604482015260640161053a565b8382146115705760405162461bcd60e51b815260206004820152601960248201527f6b65792076616c7565206c656e677468206d69736d6174636800000000000000604482015260640161053a565b60008681526007602052604081206006019061158d90829061246e565b61159b60018201600061246e565b60005b858110156116e25760008787838181106115ba576115ba6129bb565b90506020028101906115cc91906129d1565b8080601f01602080910402602001604051908101604052809392919081815260200183838082843760009201919091525050604051929350600b926116149250849150612a17565b90815260200160405180910390205460000361166a5760405162461bcd60e51b81526020600482015260156024820152741ad95e481b9bdd081a5b881dda1a5d19481b1a5cdd605a1b604482015260640161053a565b8254600181018455600084815260209020016116868282612ade565b508260010186868481811061169d5761169d6129bb565b90506020028101906116af91906129d1565b825460018101845560009384526020909320909201916116cf918361304d565b5050806116db90612bb3565b905061159e565b50867f272949a623fe2ebb911c09f40ad5f4888ce1f7f955ac7b4ec1d90926bce8421c87878787604051611719949392919061310d565b60405180910390a250505050505050565b6000818152600360205260409020546001600160a01b0316610d345760405162461bcd60e51b8152602060048201526018602482015277115490cdcc8c4e881a5b9d985b1a59081d1bdad95b88125160421b604482015260640161053a565b600081815260056020526040902080546001600160a01b0319166001600160a01b03841690811790915581906117be82610d37565b6001600160a01b03167f8c5be1e5ebec7d5bd14f71427d1e84f3dd0314c0f7b2291e5b200ac8c7c3b92560405160405180910390a45050565b60008061180383610d37565b9050806001600160a01b0316846001600160a01b0316148061184a57506001600160a01b0380821660009081526006602090815260408083209388168352929052205460ff165b8061186e5750836001600160a01b031661186384610839565b6001600160a01b0316145b949350505050565b826001600160a01b031661188982610d37565b6001600160a01b0316146118af5760405162461bcd60e51b815260040161053a9061313f565b6001600160a01b0382166119115760405162461bcd60e51b8152602060048201526024808201527f4552433732313a207472616e7366657220746f20746865207a65726f206164646044820152637265737360e01b606482015260840161053a565b826001600160a01b031661192482610d37565b6001600160a01b03161461194a5760405162461bcd60e51b815260040161053a9061313f565b600081815260056020908152604080832080546001600160a01b03199081169091556001600160a01b0387811680865260048552838620805460001901905590871680865283862080546001019055868652600390945282852080549092168417909155905184937fddf252ad1be2c89b69c2b068fc378daa952ba7f163c4a11628f55a4df523b3ef91a4505050565b60006119e582610d37565b90506119f082610d37565b600083815260056020908152604080832080546001600160a01b03199081169091556001600160a01b0385168085526004845282852080546000190190558785526003909352818420805490911690555192935084927fddf252ad1be2c89b69c2b068fc378daa952ba7f163c4a11628f55a4df523b3ef908390a45050565b611a793383611ed3565b611ac55760405162461bcd60e51b815260206004820152601e60248201527f63616c6c6572206973206e6f74206f776e6572206f72206d616e616765720000604482015260640161053a565b600082815260076020908152604091829020600501805460ff191660ff8516908117909155915191825283917f44a3e3f87cade7170a6529283ad66432735cd404d04808c0a95b8c512f4de2b8910160405180910390a25050565b6000600881611b3560808501606086016126e1565b6001600160a01b0316815260208101919091526040016000205415611b8d5760405162461bcd60e51b815260206004820152600e60248201526d1a5bdd081a185cc81b5a5b9d195960921b604482015260640161053a565b611b9983600c54611f35565b600c54600090815260076020908152604090912090611bba908401846129d1565b6001830191611bca91908361304d565b50611bd583806129d1565b8291611be291908361304d565b50611bf360a08401608085016126e1565b6004820180546001600160a01b0319166001600160a01b0392909216919091179055611c2560808401606085016126e1565b6003820180546001600160a01b0319166001600160a01b0392909216919091179055611c5460408401846129d1565b6002830191611c6491908361304d565b5060058101805460ff19166001179055600c5460086000611c8b60808701606088016126e1565b6001600160a01b03908116825260208201929092526040016000209190915584167fa529279633b3e95d3b97f0713519bc431c325a7058deb54b49d3c50349d1bdf0611cd785806129d1565b600c54604051611ce993929190613184565b60405180910390a2600c8054906000611d0183612bb3565b9091555050600d8054906000611d1683612bb3565b91905055506001600c5461186e9190612a49565b816001600160a01b0316836001600160a01b031603611d8b5760405162461bcd60e51b815260206004820152601960248201527f4552433732313a20617070726f766520746f2063616c6c657200000000000000604482015260640161053a565b6001600160a01b03838116600081815260066020908152604080832094871680845294825291829020805460ff191686151590811790915591519182527f17307eab39ab6107e8899845ad3d59bd9653f200f220920489ca2b5937696c31910160405180910390a3505050565b611e03848484611876565b611e0f848484846120c0565b61116b5760405162461bcd60e51b815260040161053a906131a8565b60606000611e38836121c1565b60010190506000816001600160401b03811115611e5757611e576127ad565b6040519080825280601f01601f191660200182016040528015611e81576020820181803683370190505b5090508181016020015b600019016f181899199a1a9b1b9c1cb0b131b232b360811b600a86061a8153600a8504945084611e8b57509392505050565b60606105056001600160a01b0383166014612299565b6000611edf83836117f7565b80611f0657506000828152600760205260409020600401546001600160a01b038481169116145b80610b4957505060009081526007602052604090206005015461010090046001600160a01b0390811691161490565b6001600160a01b038216611f8b5760405162461bcd60e51b815260206004820181905260248201527f4552433732313a206d696e7420746f20746865207a65726f2061646472657373604482015260640161053a565b6000818152600360205260409020546001600160a01b031615611ff05760405162461bcd60e51b815260206004820152601c60248201527f4552433732313a20746f6b656e20616c7265616479206d696e74656400000000604482015260640161053a565b6000818152600360205260409020546001600160a01b0316156120555760405162461bcd60e51b815260206004820152601c60248201527f4552433732313a20746f6b656e20616c7265616479206d696e74656400000000604482015260640161053a565b6001600160a01b038216600081815260046020908152604080832080546001019055848352600390915280822080546001600160a01b0319168417905551839291907fddf252ad1be2c89b69c2b068fc378daa952ba7f163c4a11628f55a4df523b3ef908290a45050565b60006001600160a01b0384163b156121b657604051630a85bd0160e11b81526001600160a01b0385169063150b7a02906121049033908990889088906004016131fa565b6020604051808303816000875af192505050801561213f575060408051601f3d908101601f1916820190925261213c91810190613237565b60015b61219c573d80801561216d576040519150601f19603f3d011682016040523d82523d6000602084013e612172565b606091505b5080516000036121945760405162461bcd60e51b815260040161053a906131a8565b805181602001fd5b6001600160e01b031916630a85bd0160e11b14905061186e565b506001949350505050565b60008072184f03e93ff9f4daa797ed6e38ed64bf6a1f0160401b83106122005772184f03e93ff9f4daa797ed6e38ed64bf6a1f0160401b830492506040015b6d04ee2d6d415b85acef8100000000831061222c576d04ee2d6d415b85acef8100000000830492506020015b662386f26fc10000831061224a57662386f26fc10000830492506010015b6305f5e1008310612262576305f5e100830492506008015b612710831061227657612710830492506004015b60648310612288576064830492506002015b600a83106105055760010192915050565b606060006122a8836002613254565b6122b390600261326b565b6001600160401b038111156122ca576122ca6127ad565b6040519080825280601f01601f1916602001820160405280156122f4576020820181803683370190505b509050600360fc1b8160008151811061230f5761230f6129bb565b60200101906001600160f81b031916908160001a905350600f60fb1b8160018151811061233e5761233e6129bb565b60200101906001600160f81b031916908160001a9053506000612362846002613254565b61236d90600161326b565b90505b60018111156123e5576f181899199a1a9b1b9c1cb0b131b232b360811b85600f16601081106123a1576123a16129bb565b1a60f81b8282815181106123b7576123b76129bb565b60200101906001600160f81b031916908160001a90535060049490941c936123de81612d0e565b9050612370565b508315610b495760405162461bcd60e51b815260206004820181905260248201527f537472696e67733a20686578206c656e67746820696e73756666696369656e74604482015260640161053a565b50805461244090612a5c565b6000825580601f10612450575050565b601f016020900490600052602060002090810190610d34919061248c565b5080546000825590600052602060002090810190610d3491906124a5565b5b808211156124a1576000815560010161248d565b5090565b808211156124a15760006124b98282612434565b506001016124a5565b6001600160e01b031981168114610d3457600080fd5b6000602082840312156124ea57600080fd5b8135610b49816124c2565b60008083601f84011261250757600080fd5b5081356001600160401b0381111561251e57600080fd5b6020830191508360208260051b850101111561253957600080fd5b9250929050565b6000806020838503121561255357600080fd5b82356001600160401b0381111561256957600080fd5b612575858286016124f5565b90969095509350505050565b60005b8381101561259c578181015183820152602001612584565b50506000910152565b600081518084526125bd816020860160208601612581565b601f01601f19169290920160200192915050565b602081526000610b4960208301846125a5565b6000602082840312156125f657600080fd5b5035919050565b80356001600160a01b038116811461261457600080fd5b919050565b6000806040838503121561262c57600080fd5b612635836125fd565b946020939093013593505050565b6000602080830181845280855180835260408601915060408160051b870101925083870160005b8281101561269857603f198886030184526126868583516125a5565b9450928501929085019060010161266a565b5092979650505050505050565b6000806000606084860312156126ba57600080fd5b6126c3846125fd565b92506126d1602085016125fd565b9150604084013590509250925092565b6000602082840312156126f357600080fd5b610b49826125fd565b6000806040838503121561270f57600080fd5b612718836125fd565b915060208301356001600160401b0381111561273357600080fd5b830160a0818603121561274557600080fd5b809150509250929050565b6000806040838503121561276357600080fd5b61276c836125fd565b91506020830135801515811461274557600080fd5b6000806040838503121561279457600080fd5b823591506127a4602084016125fd565b90509250929050565b634e487b7160e01b600052604160045260246000fd5b600080600080608085870312156127d957600080fd5b6127e2856125fd565b93506127f0602086016125fd565b92506040850135915060608501356001600160401b038082111561281357600080fd5b818701915087601f83011261282757600080fd5b813581811115612839576128396127ad565b604051601f8201601f19908116603f01168101908382118183101715612861576128616127ad565b816040528281528a602084870101111561287a57600080fd5b82602086016020830137600060208483010152809550505050505092959194509250565b6000806000604084860312156128b357600080fd5b6128bc846125fd565b925060208401356001600160401b038111156128d757600080fd5b6128e3868287016124f5565b9497909650939450505050565b60008060008060006060868803121561290857600080fd5b8535945060208601356001600160401b038082111561292657600080fd5b61293289838a016124f5565b9096509450604088013591508082111561294b57600080fd5b50612958888289016124f5565b969995985093965092949392505050565b6000806040838503121561297c57600080fd5b612985836125fd565b91506127a4602084016125fd565b6020808252600e908201526d1b9bdd0b585d5d1a1bdc9a5e995960921b604082015260600190565b634e487b7160e01b600052603260045260246000fd5b6000808335601e198436030181126129e857600080fd5b8301803591506001600160401b03821115612a0257600080fd5b60200191503681900382131561253957600080fd5b60008251612a29818460208701612581565b9190910192915050565b634e487b7160e01b600052601160045260246000fd5b8181038181111561050557610505612a33565b600181811c90821680612a7057607f821691505b602082108103610ac657634e487b7160e01b600052602260045260246000fd5b601f82111561097057600081815260208120601f850160051c81016020861015612ab75750805b601f850160051c820191505b81811015612ad657828155600101612ac3565b505050505050565b81516001600160401b03811115612af757612af76127ad565b612b0b81612b058454612a5c565b84612a90565b602080601f831160018114612b405760008415612b285750858301515b600019600386901b1c1916600185901b178555612ad6565b600085815260208120601f198616915b82811015612b6f57888601518255948401946001909101908401612b50565b5085821015612b8d5787850151600019600388901b60f8161c191681555b5050505050600190811b01905550565b634e487b7160e01b600052603160045260246000fd5b600060018201612bc557612bc5612a33565b5060010190565b81835281816020850137506000828201602090810191909152601f909101601f19169091010190565b81835260006020808501808196508560051b810191508460005b87811015612c795782840389528135601e19883603018112612c3057600080fd5b870185810190356001600160401b03811115612c4b57600080fd5b803603821315612c5a57600080fd5b612c65868284612bcc565b9a87019a9550505090840190600101612c0f565b5091979650505050505050565b60208152600061186e602083018486612bf5565b6020808252602d908201527f4552433732313a2063616c6c6572206973206e6f7420746f6b656e206f776e6560408201526c1c881bdc88185c1c1c9bdd9959609a1b606082015260800190565b6020808252600d908201526c373796b832b936b4b9b9b4b7b760991b604082015260600190565b600081612d1d57612d1d612a33565b506000190190565b60008154612d3281612a5c565b60018281168015612d4a5760018114612d5f57612d8e565b60ff1984168752821515830287019450612d8e565b8560005260208060002060005b85811015612d855781548a820152908401908201612d6c565b50505082870194505b5050505092915050565b641134b2111d60d91b81528651600090612db9816005850160208c01612581565b68161131b7b232911d1160b91b600591840191820152612ddc600e820189612d25565b691116113730b6b2911d1160b11b81529050612dfb600a820188612d25565b691116113334b936911d1160b11b81529050612e1a600a820187612d25565b6811161134b7ba111d1160b91b81528551909150612e3f816009840160208901612581565b6c11161136b0b730b3b2b9111d1160991b600992909101918201528351612e6d816016840160208801612581565b01601601612e7f8161088b60f21b9052565b60020198975050505050505050565b681137bbb732b9111d1160b91b81528351600090612eb3816009850160208901612581565b6d11161130b8383937bb32b2111d1160911b6009918401918201528451612ee1816017840160208901612581565b6a11161139ba30ba3ab9911d60a91b601792909101918201528351612f0d816022840160208801612581565b0160220195945050505050565b60008451612f2c818460208901612581565b6f3d90113a3930b4ba2fba3cb832911d1160811b908301908152612f536010820186612d25565b6a1116113b30b63ab2911d1160a91b81529050612f73600b820185612d25565b6222207d60e81b81526003019695505050505050565b60008251612f9b818460208701612581565b600b60fa1b920191825250600101919050565b60008251612fc0818460208701612581565b605d60f81b920191825250600101919050565b607b60f81b815260008451612fef816001850160208901612581565b845190830190613006816001840160208901612581565b845191019061301c816001840160208801612581565b607d60f81b9101600181019190915260020195945050505050565b60008235609e19833603018112612a2957600080fd5b6001600160401b03831115613064576130646127ad565b613078836130728354612a5c565b83612a90565b6000601f8411600181146130ac57600085156130945750838201355b600019600387901b1c1916600186901b178355613106565b600083815260209020601f19861690835b828110156130dd57868501358255602094850194600190920191016130bd565b50868210156130fa5760001960f88860031b161c19848701351681555b505060018560011b0183555b5050505050565b604081526000613121604083018688612bf5565b8281036020840152613134818587612bf5565b979650505050505050565b60208082526025908201527f4552433732313a207472616e736665722066726f6d20696e636f72726563742060408201526437bbb732b960d91b606082015260800190565b604081526000613198604083018587612bcc565b9050826020830152949350505050565b60208082526032908201527f4552433732313a207472616e7366657220746f206e6f6e20455243373231526560408201527131b2b4bb32b91034b6b83632b6b2b73a32b960711b606082015260800190565b6001600160a01b038581168252841660208201526040810183905260806060820181905260009061322d908301846125a5565b9695505050505050565b60006020828403121561324957600080fd5b8151610b49816124c2565b808202811582820484141761050557610505612a33565b8082018082111561050557610505612a3356fea26469706673582212207eb6dfeb36a8a6667c01d1debaf1756e66a14a6340fc1e2dcbae2be15573689964736f6c63430008140033",
    "linkReferences": {}
  },
  "methodIdentifiers": {
    "addKeys(string[])": "91efe4cd",
    "addMinter(address)": "983b2d56",
    "addPermission(address)": "4d0a5dbd",
    "approve(address,uint256)": "095ea7b3",
    "balanceOf(address)": "70a08231",
    "batchMint(address,(string,string,string,address,address)[])": "cb46485a",
    "burn(uint256)": "42966c68",
    "deny(address)": "9c52a7f1",
    "extend(uint256,string[],string[])": "cb67d3c6",
    "getApproved(uint256)": "081812fc",
    "getKeys()": "2150c518",
    "iotOf(uint256)": "71b6aa39",
    "isApprovedForAll(address,address)": "e985e9c5",
    "isEnable(uint256)": "5bf5be20",
    "isIot(address,uint256)": "3e209513",
    "mint(address,(string,string,string,address,address))": "6bdc7f65",
    "name()": "06fdde03",
    "ownerOf(uint256)": "6352211e",
    "removeKeys(string[])": "02fb7e73",
    "safeTransferFrom(address,address,uint256)": "42842e0e",
    "safeTransferFrom(address,address,uint256,bytes)": "b88d4fde",
    "setApprovalForAll(address,bool)": "a22cb465",
    "setApproveManager(uint256,address)": "b7cda825",
    "start(uint256)": "95805dad",
    "stop(uint256)": "6299f8cf",
    "supply()": "047fc9aa",
    "supportsInterface(bytes4)": "01ffc9a7",
    "symbol()": "95d89b41",
    "tokenIdByIot(address)": "419d1b3e",
    "tokenURI(uint256)": "c87b56dd",
    "transferFrom(address,address,uint256)": "23b872dd"
  },
  "id": 51
}