{
  "abi": [
    {
      "anonymous": false,
      "inputs": [
        {
          "indexed": true,
          "internalType": "address",
          "name": "usr",
          "type": "address"
        }
      ],
      "name": "Admin",
      "type": "event"
    },
    {
      "anonymous": false,
      "inputs": [
        {
          "indexed": true,
          "internalType": "address",
          "name": "usr",
          "type": "address"
        }
      ],
      "name": "Deny",
      "type": "event"
    },
    {
      "anonymous": false,
      "inputs": [
        {
          "indexed": true,
          "internalType": "address",
          "name": "usr",
          "type": "address"
        }
      ],
      "name": "Permission",
      "type": "event"
    },
    {
      "inputs": [
        {
          "internalType": "address",
          "name": "to_",
          "type": "address"
        }
      ],
      "name": "addPermission",
      "outputs": [],
      "stateMutability": "nonpayable",
      "type": "function"
    },
    {
      "inputs": [
        {
          "internalType": "address",
          "name": "usr",
          "type": "address"
        }
      ],
      "name": "deny",
      "outputs": [],
      "stateMutability": "nonpayable",
      "type": "function"
    }
  ],
  "bytecode": {
    "object": "0x608060405234801561001057600080fd5b506101f7806100206000396000f3fe608060405234801561001057600080fd5b50600436106100365760003560e01c80634d0a5dbd1461003b5780639c52a7f114610050575b600080fd5b61004e610049366004610191565b610063565b005b61004e61005e366004610191565b6100fd565b336000908152602081905260409020546001146100b85760405162461bcd60e51b815260206004820152600e60248201526d1b9bdd0b585d5d1a1bdc9a5e995960921b60448201526064015b60405180910390fd5b6001600160a01b03811660008181526020819052604080822060029055517f6811d3d9793d3c27bdf3a8004dfde8b0e338d25a2a671c07087ffd927ddd883e9190a250565b3360009081526020819052604090205460011461014d5760405162461bcd60e51b815260206004820152600e60248201526d1b9bdd0b585d5d1a1bdc9a5e995960921b60448201526064016100af565b6001600160a01b038116600081815260208190526040808220829055517f184450df2e323acec0ed3b5c7531b81f9b4cdef7914dfd4c0a4317416bb5251b9190a250565b6000602082840312156101a357600080fd5b81356001600160a01b03811681146101ba57600080fd5b939250505056fea26469706673582212204fc626d7cb13d7543d8ed922891efe070f5abff16db108d4ed940d3d7a7dc26764736f6c63430008140033",
    "linkReferences": {}
  },
  "methodIdentifiers": {
    "addPermission(address)": "4d0a5dbd",
    "deny(address)": "9c52a7f1"
  },
  "id": 49
}