{
  "abi": [
    {
      "anonymous": false,
      "inputs": [
        {
          "indexed": false,
          "internalType": "string[]",
          "name": "keys",
          "type": "string[]"
        }
      ],
      "name": "AddExtendKeys",
      "type": "event"
    },
    {
      "anonymous": false,
      "inputs": [
        {
          "indexed": true,
          "internalType": "address",
          "name": "usr",
          "type": "address"
        }
      ],
      "name": "Admin",
      "type": "event"
    },
    {
      "anonymous": false,
      "inputs": [
        {
          "indexed": false,
          "internalType": "address",
          "name": "previousAdmin",
          "type": "address"
        },
        {
          "indexed": false,
          "internalType": "address",
          "name": "newAdmin",
          "type": "address"
        }
      ],
      "name": "AdminChanged",
      "type": "event"
    },
    {
      "anonymous": false,
      "inputs": [
        {
          "indexed": true,
          "internalType": "address",
          "name": "owner",
          "type": "address"
        },
        {
          "indexed": true,
          "internalType": "address",
          "name": "approved",
          "type": "address"
        },
        {
          "indexed": true,
          "internalType": "uint256",
          "name": "tokenId",
          "type": "uint256"
        }
      ],
      "name": "Approval",
      "type": "event"
    },
    {
      "anonymous": false,
      "inputs": [
        {
          "indexed": true,
          "internalType": "address",
          "name": "owner",
          "type": "address"
        },
        {
          "indexed": true,
          "internalType": "address",
          "name": "operator",
          "type": "address"
        },
        {
          "indexed": false,
          "internalType": "bool",
          "name": "approved",
          "type": "bool"
        }
      ],
      "name": "ApprovalForAll",
      "type": "event"
    },
    {
      "anonymous": false,
      "inputs": [
        {
          "indexed": true,
          "internalType": "address",
          "name": "beacon",
          "type": "address"
        }
      ],
      "name": "BeaconUpgraded",
      "type": "event"
    },
    {
      "anonymous": false,
      "inputs": [
        {
          "indexed": true,
          "internalType": "uint256",
          "name": "deviceId",
          "type": "uint256"
        }
      ],
      "name": "BurnDevice",
      "type": "event"
    },
    {
      "anonymous": false,
      "inputs": [
        {
          "indexed": true,
          "internalType": "address",
          "name": "usr",
          "type": "address"
        }
      ],
      "name": "Deny",
      "type": "event"
    },
    {
      "anonymous": false,
      "inputs": [
        {
          "indexed": false,
          "internalType": "uint8",
          "name": "version",
          "type": "uint8"
        }
      ],
      "name": "Initialized",
      "type": "event"
    },
    {
      "anonymous": false,
      "inputs": [
        {
          "indexed": false,
          "internalType": "string",
          "name": "code",
          "type": "string"
        },
        {
          "indexed": true,
          "internalType": "address",
          "name": "usr",
          "type": "address"
        },
        {
          "indexed": false,
          "internalType": "uint256",
          "name": "deviceId",
          "type": "uint256"
        }
      ],
      "name": "MintDevice",
      "type": "event"
    },
    {
      "anonymous": false,
      "inputs": [
        {
          "indexed": true,
          "internalType": "address",
          "name": "usr",
          "type": "address"
        }
      ],
      "name": "Permission",
      "type": "event"
    },
    {
      "anonymous": false,
      "inputs": [
        {
          "indexed": false,
          "internalType": "string[]",
          "name": "keys",
          "type": "string[]"
        }
      ],
      "name": "RemoveExtendKeys",
      "type": "event"
    },
    {
      "anonymous": false,
      "inputs": [
        {
          "indexed": true,
          "internalType": "uint256",
          "name": "deviceId",
          "type": "uint256"
        },
        {
          "indexed": false,
          "internalType": "address",
          "name": "approved",
          "type": "address"
        }
      ],
      "name": "SetApproved",
      "type": "event"
    },
    {
      "anonymous": false,
      "inputs": [
        {
          "indexed": true,
          "internalType": "uint256",
          "name": "deviceId",
          "type": "uint256"
        },
        {
          "indexed": false,
          "internalType": "string[]",
          "name": "keys",
          "type": "string[]"
        },
        {
          "indexed": false,
          "internalType": "string[]",
          "name": "values",
          "type": "string[]"
        }
      ],
      "name": "SetExtend",
      "type": "event"
    },
    {
      "anonymous": false,
      "inputs": [
        {
          "indexed": true,
          "internalType": "uint256",
          "name": "deviceId",
          "type": "uint256"
        },
        {
          "indexed": false,
          "internalType": "uint8",
          "name": "status",
          "type": "uint8"
        }
      ],
      "name": "SetStatus",
      "type": "event"
    },
    {
      "anonymous": false,
      "inputs": [
        {
          "indexed": true,
          "internalType": "address",
          "name": "from",
          "type": "address"
        },
        {
          "indexed": true,
          "internalType": "address",
          "name": "to",
          "type": "address"
        },
        {
          "indexed": true,
          "internalType": "uint256",
          "name": "tokenId",
          "type": "uint256"
        }
      ],
      "name": "Transfer",
      "type": "event"
    },
    {
      "anonymous": false,
      "inputs": [
        {
          "indexed": true,
          "internalType": "address",
          "name": "implementation",
          "type": "address"
        }
      ],
      "name": "Upgraded",
      "type": "event"
    },
    {
      "inputs": [
        {
          "internalType": "string[]",
          "name": "keys_",
          "type": "string[]"
        }
      ],
      "name": "addKeys",
      "outputs": [],
      "stateMutability": "nonpayable",
      "type": "function"
    },
    {
      "inputs": [
        {
          "internalType": "address",
          "name": "to_",
          "type": "address"
        }
      ],
      "name": "addMinter",
      "outputs": [],
      "stateMutability": "nonpayable",
      "type": "function"
    },
    {
      "inputs": [
        {
          "internalType": "address",
          "name": "to_",
          "type": "address"
        }
      ],
      "name": "addPermission",
      "outputs": [],
      "stateMutability": "nonpayable",
      "type": "function"
    },
    {
      "inputs": [
        {
          "internalType": "address",
          "name": "to",
          "type": "address"
        },
        {
          "internalType": "uint256",
          "name": "tokenId",
          "type": "uint256"
        }
      ],
      "name": "approve",
      "outputs": [],
      "stateMutability": "nonpayable",
      "type": "function"
    },
    {
      "inputs": [
        {
          "internalType": "address",
          "name": "owner",
          "type": "address"
        }
      ],
      "name": "balanceOf",
      "outputs": [
        {
          "internalType": "uint256",
          "name": "",
          "type": "uint256"
        }
      ],
      "stateMutability": "view",
      "type": "function"
    },
    {
      "inputs": [
        {
          "internalType": "address",
          "name": "usr_",
          "type": "address"
        },
        {
          "components": [
            {
              "internalType": "string",
              "name": "code",
              "type": "string"
            },
            {
              "internalType": "string",
              "name": "name",
              "type": "string"
            },
            {
              "internalType": "string",
              "name": "firm",
              "type": "string"
            },
            {
              "internalType": "address",
              "name": "iot",
              "type": "address"
            },
            {
              "internalType": "address",
              "name": "manager",
              "type": "address"
            }
          ],
          "internalType": "struct DeviceBase[]",
          "name": "bases_",
          "type": "tuple[]"
        }
      ],
      "name": "batchMint",
      "outputs": [],
      "stateMutability": "nonpayable",
      "type": "function"
    },
    {
      "inputs": [
        {
          "internalType": "uint256",
          "name": "deviceId_",
          "type": "uint256"
        }
      ],
      "name": "burn",
      "outputs": [],
      "stateMutability": "nonpayable",
      "type": "function"
    },
    {
      "inputs": [
        {
          "internalType": "address",
          "name": "usr",
          "type": "address"
        }
      ],
      "name": "deny",
      "outputs": [],
      "stateMutability": "nonpayable",
      "type": "function"
    },
    {
      "inputs": [
        {
          "internalType": "uint256",
          "name": "tokenId_",
          "type": "uint256"
        },
        {
          "internalType": "string[]",
          "name": "keys_",
          "type": "string[]"
        },
        {
          "internalType": "string[]",
          "name": "values_",
          "type": "string[]"
        }
      ],
      "name": "extend",
      "outputs": [],
      "stateMutability": "nonpayable",
      "type": "function"
    },
    {
      "inputs": [
        {
          "internalType": "uint256",
          "name": "tokenId",
          "type": "uint256"
        }
      ],
      "name": "getApproved",
      "outputs": [
        {
          "internalType": "address",
          "name": "",
          "type": "address"
        }
      ],
      "stateMutability": "view",
      "type": "function"
    },
    {
      "inputs": [],
      "name": "getKeys",
      "outputs": [
        {
          "internalType": "string[]",
          "name": "",
          "type": "string[]"
        }
      ],
      "stateMutability": "view",
      "type": "function"
    },
    {
      "inputs": [
        {
          "internalType": "string",
          "name": "name_",
          "type": "string"
        },
        {
          "internalType": "string",
          "name": "symbol_",
          "type": "string"
        }
      ],
      "name": "initialize",
      "outputs": [],
      "stateMutability": "nonpayable",
      "type": "function"
    },
    {
      "inputs": [
        {
          "internalType": "uint256",
          "name": "deviceId_",
          "type": "uint256"
        }
      ],
      "name": "iotOf",
      "outputs": [
        {
          "internalType": "address",
          "name": "",
          "type": "address"
        }
      ],
      "stateMutability": "view",
      "type": "function"
    },
    {
      "inputs": [
        {
          "internalType": "address",
          "name": "owner",
          "type": "address"
        },
        {
          "internalType": "address",
          "name": "operator",
          "type": "address"
        }
      ],
      "name": "isApprovedForAll",
      "outputs": [
        {
          "internalType": "bool",
          "name": "",
          "type": "bool"
        }
      ],
      "stateMutability": "view",
      "type": "function"
    },
    {
      "inputs": [
        {
          "internalType": "uint256",
          "name": "deviceId_",
          "type": "uint256"
        }
      ],
      "name": "isEnable",
      "outputs": [
        {
          "internalType": "bool",
          "name": "",
          "type": "bool"
        }
      ],
      "stateMutability": "view",
      "type": "function"
    },
    {
      "inputs": [
        {
          "internalType": "address",
          "name": "usr",
          "type": "address"
        },
        {
          "internalType": "uint256",
          "name": "deviceId_",
          "type": "uint256"
        }
      ],
      "name": "isIot",
      "outputs": [
        {
          "internalType": "bool",
          "name": "",
          "type": "bool"
        }
      ],
      "stateMutability": "view",
      "type": "function"
    },
    {
      "inputs": [
        {
          "internalType": "address",
          "name": "usr_",
          "type": "address"
        },
        {
          "components": [
            {
              "internalType": "string",
              "name": "code",
              "type": "string"
            },
            {
              "internalType": "string",
              "name": "name",
              "type": "string"
            },
            {
              "internalType": "string",
              "name": "firm",
              "type": "string"
            },
            {
              "internalType": "address",
              "name": "iot",
              "type": "address"
            },
            {
              "internalType": "address",
              "name": "manager",
              "type": "address"
            }
          ],
          "internalType": "struct DeviceBase",
          "name": "base_",
          "type": "tuple"
        }
      ],
      "name": "mint",
      "outputs": [
        {
          "internalType": "uint256",
          "name": "",
          "type": "uint256"
        }
      ],
      "stateMutability": "nonpayable",
      "type": "function"
    },
    {
      "inputs": [],
      "name": "name",
      "outputs": [
        {
          "internalType": "string",
          "name": "",
          "type": "string"
        }
      ],
      "stateMutability": "view",
      "type": "function"
    },
    {
      "inputs": [
        {
          "internalType": "uint256",
          "name": "tokenId",
          "type": "uint256"
        }
      ],
      "name": "ownerOf",
      "outputs": [
        {
          "internalType": "address",
          "name": "",
          "type": "address"
        }
      ],
      "stateMutability": "view",
      "type": "function"
    },
    {
      "inputs": [],
      "name": "proxiableUUID",
      "outputs": [
        {
          "internalType": "bytes32",
          "name": "",
          "type": "bytes32"
        }
      ],
      "stateMutability": "view",
      "type": "function"
    },
    {
      "inputs": [
        {
          "internalType": "string[]",
          "name": "keys_",
          "type": "string[]"
        }
      ],
      "name": "removeKeys",
      "outputs": [],
      "stateMutability": "nonpayable",
      "type": "function"
    },
    {
      "inputs": [
        {
          "internalType": "address",
          "name": "from",
          "type": "address"
        },
        {
          "internalType": "address",
          "name": "to",
          "type": "address"
        },
        {
          "internalType": "uint256",
          "name": "tokenId",
          "type": "uint256"
        }
      ],
      "name": "safeTransferFrom",
      "outputs": [],
      "stateMutability": "nonpayable",
      "type": "function"
    },
    {
      "inputs": [
        {
          "internalType": "address",
          "name": "from",
          "type": "address"
        },
        {
          "internalType": "address",
          "name": "to",
          "type": "address"
        },
        {
          "internalType": "uint256",
          "name": "tokenId",
          "type": "uint256"
        },
        {
          "internalType": "bytes",
          "name": "data",
          "type": "bytes"
        }
      ],
      "name": "safeTransferFrom",
      "outputs": [],
      "stateMutability": "nonpayable",
      "type": "function"
    },
    {
      "inputs": [
        {
          "internalType": "address",
          "name": "operator",
          "type": "address"
        },
        {
          "internalType": "bool",
          "name": "approved",
          "type": "bool"
        }
      ],
      "name": "setApprovalForAll",
      "outputs": [],
      "stateMutability": "nonpayable",
      "type": "function"
    },
    {
      "inputs": [
        {
          "internalType": "uint256",
          "name": "deviceId_",
          "type": "uint256"
        },
        {
          "internalType": "address",
          "name": "approved_",
          "type": "address"
        }
      ],
      "name": "setApproveManager",
      "outputs": [],
      "stateMutability": "nonpayable",
      "type": "function"
    },
    {
      "inputs": [
        {
          "internalType": "uint256",
          "name": "deviceId_",
          "type": "uint256"
        }
      ],
      "name": "start",
      "outputs": [],
      "stateMutability": "nonpayable",
      "type": "function"
    },
    {
      "inputs": [
        {
          "internalType": "uint256",
          "name": "deviceId_",
          "type": "uint256"
        }
      ],
      "name": "stop",
      "outputs": [],
      "stateMutability": "nonpayable",
      "type": "function"
    },
    {
      "inputs": [],
      "name": "supply",
      "outputs": [
        {
          "internalType": "uint256",
          "name": "",
          "type": "uint256"
        }
      ],
      "stateMutability": "view",
      "type": "function"
    },
    {
      "inputs": [
        {
          "internalType": "bytes4",
          "name": "interfaceId",
          "type": "bytes4"
        }
      ],
      "name": "supportsInterface",
      "outputs": [
        {
          "internalType": "bool",
          "name": "",
          "type": "bool"
        }
      ],
      "stateMutability": "view",
      "type": "function"
    },
    {
      "inputs": [],
      "name": "symbol",
      "outputs": [
        {
          "internalType": "string",
          "name": "",
          "type": "string"
        }
      ],
      "stateMutability": "view",
      "type": "function"
    },
    {
      "inputs": [
        {
          "internalType": "address",
          "name": "iot",
          "type": "address"
        }
      ],
      "name": "tokenIdByIot",
      "outputs": [
        {
          "internalType": "uint256",
          "name": "",
          "type": "uint256"
        }
      ],
      "stateMutability": "view",
      "type": "function"
    },
    {
      "inputs": [
        {
          "internalType": "uint256",
          "name": "tokenId_",
          "type": "uint256"
        }
      ],
      "name": "tokenURI",
      "outputs": [
        {
          "internalType": "string",
          "name": "",
          "type": "string"
        }
      ],
      "stateMutability": "view",
      "type": "function"
    },
    {
      "inputs": [
        {
          "internalType": "address",
          "name": "from",
          "type": "address"
        },
        {
          "internalType": "address",
          "name": "to",
          "type": "address"
        },
        {
          "internalType": "uint256",
          "name": "tokenId",
          "type": "uint256"
        }
      ],
      "name": "transferFrom",
      "outputs": [],
      "stateMutability": "nonpayable",
      "type": "function"
    },
    {
      "inputs": [
        {
          "internalType": "address",
          "name": "newImplementation",
          "type": "address"
        }
      ],
      "name": "upgradeTo",
      "outputs": [],
      "stateMutability": "nonpayable",
      "type": "function"
    },
    {
      "inputs": [
        {
          "internalType": "address",
          "name": "newImplementation",
          "type": "address"
        },
        {
          "internalType": "bytes",
          "name": "data",
          "type": "bytes"
        }
      ],
      "name": "upgradeToAndCall",
      "outputs": [],
      "stateMutability": "payable",
      "type": "function"
    }
  ],
  "bytecode": {
    "object": "0x60a06040523060805234801561001457600080fd5b50608051613e9361004c60003960008181610d1901528181610d590152818161118d015281816111cd01526112600152613e936000f3fe6080604052600436106102045760003560e01c80635bf5be2011610118578063983b2d56116100a0578063b88d4fde1161006f578063b88d4fde146105fe578063c87b56dd1461061e578063cb46485a1461063e578063cb67d3c61461065e578063e985e9c51461067e57600080fd5b8063983b2d56146104125780639c52a7f11461059e578063a22cb465146105be578063b7cda825146105de57600080fd5b806370a08231116100e757806370a08231146104f057806371b6aa391461051057806391efe4cd1461054957806395805dad1461056957806395d89b411461058957600080fd5b80635bf5be201461045a5780636299f8cf146104905780636352211e146104b05780636bdc7f65146104d057600080fd5b80633659cfe61161019b57806342966c681161016a57806342966c68146103d25780634cd88b76146103f25780634d0a5dbd146104125780634f1ef2861461043257806352d1902d1461044557600080fd5b80633659cfe61461033c5780633e2095131461035c578063419d1b3e1461037c57806342842e0e146103b257600080fd5b8063081812fc116101d7578063081812fc146102a2578063095ea7b3146102da5780632150c518146102fa57806323b872dd1461031c57600080fd5b806301ffc9a71461020957806302fb7e731461023e578063047fc9aa1461026057806306fdde0314610280575b600080fd5b34801561021557600080fd5b50610229610224366004612f0d565b6106c7565b60405190151581526020015b60405180910390f35b34801561024a57600080fd5b5061025e610259366004612f75565b610719565b005b34801561026c57600080fd5b50610102545b604051908152602001610235565b34801561028c57600080fd5b506102956109b9565b6040516102359190613006565b3480156102ae57600080fd5b506102c26102bd366004613019565b610a4b565b6040516001600160a01b039091168152602001610235565b3480156102e657600080fd5b5061025e6102f536600461304e565b610a72565b34801561030657600080fd5b5061030f610b87565b6040516102359190613078565b34801561032857600080fd5b5061025e6103373660046130da565b610cde565b34801561034857600080fd5b5061025e610357366004613116565b610d0f565b34801561036857600080fd5b5061022961037736600461304e565b610dee565b34801561038857600080fd5b50610272610397366004613116565b6001600160a01b0316600090815260fd602052604090205490565b3480156103be57600080fd5b5061025e6103cd3660046130da565b610e41565b3480156103de57600080fd5b5061025e6103ed366004613019565b610e5c565b3480156103fe57600080fd5b5061025e61040d3660046131d3565b610fa7565b34801561041e57600080fd5b5061025e61042d366004613116565b61110f565b61025e610440366004613236565b611183565b34801561045157600080fd5b50610272611253565b34801561046657600080fd5b50610229610475366004613019565b600090815260fc602052604090206005015460ff1660011490565b34801561049c57600080fd5b5061025e6104ab366004613019565b611306565b3480156104bc57600080fd5b506102c26104cb366004613019565b611311565b3480156104dc57600080fd5b506102726104eb366004613279565b611371565b3480156104fc57600080fd5b5061027261050b366004613116565b6113c4565b34801561051c57600080fd5b506102c261052b366004613019565b600090815260fc60205260409020600301546001600160a01b031690565b34801561055557600080fd5b5061025e610564366004612f75565b61144a565b34801561057557600080fd5b5061025e610584366004613019565b6115b0565b34801561059557600080fd5b506102956115bb565b3480156105aa57600080fd5b5061025e6105b9366004613116565b6115ca565b3480156105ca57600080fd5b5061025e6105d93660046132cd565b61163d565b3480156105ea57600080fd5b5061025e6105f93660046132fe565b611648565b34801561060a57600080fd5b5061025e61061936600461332a565b611711565b34801561062a57600080fd5b50610295610639366004613019565b611749565b34801561064a57600080fd5b5061025e610659366004613391565b611a0e565b34801561066a57600080fd5b5061025e6106793660046133e3565b611aa0565b34801561068a57600080fd5b5061022961069936600461345c565b6001600160a01b039182166000908152606b6020908152604080832093909416825291909152205460ff1690565b60006001600160e01b031982166380ac58cd60e01b14806106f857506001600160e01b03198216635b5e139f60e01b145b8061071357506301ffc9a760e01b6001600160e01b03198316145b92915050565b336000908152602081905260409020546001146107515760405162461bcd60e51b815260040161074890613486565b60405180910390fd5b8060005b8181101561097a576000848483818110610771576107716134ae565b905060200281019061078391906134c4565b8080601f01602080910402602001604051908101604052809392919081815260200183838082843760009201919091525050604051929350610100926107cc925084915061350a565b9081526020016040518091039020546000146109695760ff546000906107f49060019061353c565b9050600060ff828154811061080b5761080b6134ae565b9060005260206000200180546108209061354f565b80601f016020809104026020016040519081016040528092919081815260200182805461084c9061354f565b80156108995780601f1061086e57610100808354040283529160200191610899565b820191906000526020600020905b81548152906001019060200180831161087c57829003601f168201915b505050505090506000610100846040516108b3919061350a565b90815260200160405180910390205490508160ff82815481106108d8576108d86134ae565b9060005260206000200190816108ee91906135d1565b508061010083604051610901919061350a565b90815260200160405180910390208190555061010084604051610924919061350a565b90815260200160405180910390206000905560ff80548061094757610947613690565b6001900381819060005260206000200160006109639190612e69565b90555050505b610972826136a6565b915050610755565b507f631ff444a6280523f62fed91f2ba78f38d5ccd1ff2706a881c3ced93b80bd9d683836040516109ac929190613779565b60405180910390a1505050565b6060606680546109c89061354f565b80601f01602080910402602001604051908101604052809291908181526020018280546109f49061354f565b8015610a415780601f10610a1657610100808354040283529160200191610a41565b820191906000526020600020905b815481529060010190602001808311610a2457829003601f168201915b5050505050905090565b6000610a5682611d03565b506000908152606a60205260409020546001600160a01b031690565b6000610a7d82611311565b9050806001600160a01b0316836001600160a01b031603610aea5760405162461bcd60e51b815260206004820152602160248201527f4552433732313a20617070726f76616c20746f2063757272656e74206f776e656044820152603960f91b6064820152608401610748565b336001600160a01b0382161480610b065750610b068133610699565b610b785760405162461bcd60e51b815260206004820152603d60248201527f4552433732313a20617070726f76652063616c6c6572206973206e6f7420746f60448201527f6b656e206f776e6572206f7220617070726f76656420666f7220616c6c0000006064820152608401610748565b610b828383611d62565b505050565b60ff54606090600090610b9c9060019061353c565b6001600160401b03811115610bb357610bb3613131565b604051908082528060200260200182016040528015610be657816020015b6060815260200190600190039081610bd15790505b50905060015b60ff54811015610cd85760ff8181548110610c0957610c096134ae565b906000526020600020018054610c1e9061354f565b80601f0160208091040260200160405190810160405280929190818152602001828054610c4a9061354f565b8015610c975780601f10610c6c57610100808354040283529160200191610c97565b820191906000526020600020905b815481529060010190602001808311610c7a57829003601f168201915b505050505082600183610caa919061353c565b81518110610cba57610cba6134ae565b60200260200101819052508080610cd0906136a6565b915050610bec565b50919050565b610ce83382611dd0565b610d045760405162461bcd60e51b81526004016107489061378d565b610b82838383611e4f565b6001600160a01b037f0000000000000000000000000000000000000000000000000000000000000000163003610d575760405162461bcd60e51b8152600401610748906137da565b7f00000000000000000000000000000000000000000000000000000000000000006001600160a01b0316610da0600080516020613e17833981519152546001600160a01b031690565b6001600160a01b031614610dc65760405162461bcd60e51b815260040161074890613826565b610dcf81611fb3565b60408051600080825260208201909252610deb91839190611fe2565b50565b600081815260fc60205260408120600301546001600160a01b0384811691161480610e3a5750600082815260fc60205260409020600501546001600160a01b0384811661010090920416145b9392505050565b610b8283838360405180602001604052806000815250611711565b3360009081526020819052604090205460021480610e895750336000908152602081905260409020546001145b610ea55760405162461bcd60e51b815260040161074890613872565b610eae8161214d565b600081815260fc6020526040812060038101546001600160a01b0316918181610ed78282612e69565b610ee5600183016000612e69565b610ef3600283016000612e69565b506003810180546001600160a01b03199081169091556004909101805490911690556005820180546001600160a81b0319169055600682016000610f378282612ea3565b610f45600183016000612ea3565b505050506001600160a01b038116600090815260fd60205260408120819055610102805491610f7383613899565b909155505060405182907faf85df479bd2fa28b818621f47385a48b1b50b50b7a735502fbc0da799e3a7d290600090a25050565b600154610100900460ff1615808015610fc457506001805460ff16105b80610fdd5750303b158015610fdd57506001805460ff16145b6110405760405162461bcd60e51b815260206004820152602e60248201527f496e697469616c697a61626c653a20636f6e747261637420697320616c72656160448201526d191e481a5b9a5d1a585b1a5e995960921b6064820152608401610748565b6001805460ff1916811790558015611062576001805461ff0019166101001790555b61106c83836121e2565b3360009081526020818152604080832060019081905561010181905560ff80549182018155845281519283019091529181527fe08ec2af2cfc251225e1968fd6ca21e4044f129bffa95bac3503be8bdb30a367909101906110cd90826135d1565b508015610b82576001805461ff00191681556040519081527f7f26b83ff96e1f2b6a682f133852f6798a09c465da95921460cefb3847402498906020016109ac565b3360009081526020819052604090205460011461113e5760405162461bcd60e51b815260040161074890613486565b6001600160a01b03811660008181526020819052604080822060029055517f6811d3d9793d3c27bdf3a8004dfde8b0e338d25a2a671c07087ffd927ddd883e9190a250565b6001600160a01b037f00000000000000000000000000000000000000000000000000000000000000001630036111cb5760405162461bcd60e51b8152600401610748906137da565b7f00000000000000000000000000000000000000000000000000000000000000006001600160a01b0316611214600080516020613e17833981519152546001600160a01b031690565b6001600160a01b03161461123a5760405162461bcd60e51b815260040161074890613826565b61124382611fb3565b61124f82826001611fe2565b5050565b6000306001600160a01b037f000000000000000000000000000000000000000000000000000000000000000016146112f35760405162461bcd60e51b815260206004820152603860248201527f555550535570677261646561626c653a206d757374206e6f742062652063616c60448201527f6c6564207468726f7567682064656c656761746563616c6c00000000000000006064820152608401610748565b50600080516020613e1783398151915290565b610deb816000612266565b6000818152606860205260408120546001600160a01b0316806107135760405162461bcd60e51b8152602060048201526018602482015277115490cdcc8c4e881a5b9d985b1a59081d1bdad95b88125160421b6044820152606401610748565b336000908152602081905260408120546002148061139e5750336000908152602081905260409020546001145b6113ba5760405162461bcd60e51b815260040161074890613872565b610e3a8383612317565b60006001600160a01b03821661142e5760405162461bcd60e51b815260206004820152602960248201527f4552433732313a2061646472657373207a65726f206973206e6f7420612076616044820152683634b21037bbb732b960b91b6064820152608401610748565b506001600160a01b031660009081526069602052604090205490565b336000908152602081905260409020546001146114795760405162461bcd60e51b815260040161074890613486565b8060005b8181101561157e576000848483818110611499576114996134ae565b90506020028101906114ab91906134c4565b8080601f01602080910402602001604051908101604052809392919081815260200183838082843760009201919091525050604051929350610100926114f4925084915061350a565b90815260200160405180910390205460000361156d5760ff546040516101009061151f90849061350a565b9081526040519081900360200190205560ff80546001810182556000919091527fe08ec2af2cfc251225e1968fd6ca21e4044f129bffa95bac3503be8bdb30a3670161156b82826135d1565b505b611576826136a6565b91505061147d565b507fad3b6f46052885a1a9550c084ac7fd49f687c1e97b4ed4ced3af1a54e6b76f1183836040516109ac929190613779565b610deb816001612266565b6060606780546109c89061354f565b336000908152602081905260409020546001146115f95760405162461bcd60e51b815260040161074890613486565b6001600160a01b038116600081815260208190526040808220829055517f184450df2e323acec0ed3b5c7531b81f9b4cdef7914dfd4c0a4317416bb5251b9190a250565b61124f338383612528565b600082815260fc602052604090206004015482906001600160a01b031633146116a15760405162461bcd60e51b815260206004820152600b60248201526a3737ba1036b0b730b3b2b960a91b6044820152606401610748565b600083815260fc60209081526040918290206005018054610100600160a81b0319166101006001600160a01b03871690810291909117909155915191825284917fd25b491fbe870c41327c2faed5a400a946b40744f1be3b3afc1a0c033366eb73910160405180910390a2505050565b61171b3383611dd0565b6117375760405162461bcd60e51b81526004016107489061378d565b611743848484846125f6565b50505050565b606061175482611d03565b600061175f83612629565b600084815260fc6020526040902060038101546001820190600283019061178e906001600160a01b03166126bb565b600088815260fc60205260409020600401546117b2906001600160a01b03166126bb565b6040516020016117c796959493929190613923565b604051602081830303815290604052905060006117e384611311565b600085815260fc60205260408120600501549192509061010090046001600160a01b03161561183a57600085815260fc60205260409020600501546118359061010090046001600160a01b03166126bb565b61184b565b604051806020016040528060008152505b90506000611861836001600160a01b03166126bb565b600087815260fc602052604090206005015483906118819060ff16612629565b60405160200161189393929190613a17565b60408051601f19818403018152828201909152600d82526c2c2022657874656e6473223a5b60981b6020830152915060005b600088815260fc60205260409020600601548110156119bb57600088815260fc60205260409020600601805483919083908110611904576119046134ae565b9060005260206000200160fc60008b81526020019081526020016000206006016001018381548110611938576119386134ae565b9060005260206000200160405160200161195493929190613aa3565b60408051601f1981840301815291815260008a815260fc60205220600601549092506119829060019061353c565b81146119ab57816040516020016119999190613b12565b60405160208183030381529060405291505b6119b4816136a6565b90506118c5565b50806040516020016119cd9190613b37565b60405160208183030381529060405290508482826040516020016119f393929190613b5c565b60405160208183030381529060405295505050505050919050565b3360009081526020819052604090205460021480611a3b5750336000908152602081905260409020546001145b611a575760405162461bcd60e51b815260040161074890613872565b60005b8181101561174357611a8f84848484818110611a7857611a786134ae565b9050602002810190611a8a9190613bc0565b612317565b50611a99816136a6565b9050611a5a565b600085815260fc602052604090206004015485906001600160a01b03163314611af95760405162461bcd60e51b815260206004820152600b60248201526a3737ba1036b0b730b3b2b960a91b6044820152606401610748565b838214611b485760405162461bcd60e51b815260206004820152601960248201527f6b65792076616c7565206c656e677468206d69736d61746368000000000000006044820152606401610748565b600086815260fc6020526040812060060190611b65908290612ea3565b611b73600182016000612ea3565b60005b85811015611cbb576000878783818110611b9257611b926134ae565b9050602002810190611ba491906134c4565b8080601f0160208091040260200160405190810160405280939291908181526020018383808284376000920191909152505060405192935061010092611bed925084915061350a565b908152602001604051809103902054600003611c435760405162461bcd60e51b81526020600482015260156024820152741ad95e481b9bdd081a5b881dda1a5d19481b1a5cdd605a1b6044820152606401610748565b825460018101845560008481526020902001611c5f82826135d1565b5082600101868684818110611c7657611c766134ae565b9050602002810190611c8891906134c4565b82546001810184556000938452602090932090920191611ca89183613bd6565b505080611cb4906136a6565b9050611b76565b50867f272949a623fe2ebb911c09f40ad5f4888ce1f7f955ac7b4ec1d90926bce8421c87878787604051611cf29493929190613c96565b60405180910390a250505050505050565b6000818152606860205260409020546001600160a01b0316610deb5760405162461bcd60e51b8152602060048201526018602482015277115490cdcc8c4e881a5b9d985b1a59081d1bdad95b88125160421b6044820152606401610748565b6000818152606a6020526040902080546001600160a01b0319166001600160a01b0384169081179091558190611d9782611311565b6001600160a01b03167f8c5be1e5ebec7d5bd14f71427d1e84f3dd0314c0f7b2291e5b200ac8c7c3b92560405160405180910390a45050565b600080611ddc83611311565b9050806001600160a01b0316846001600160a01b03161480611e2357506001600160a01b038082166000908152606b602090815260408083209388168352929052205460ff165b80611e475750836001600160a01b0316611e3c84610a4b565b6001600160a01b0316145b949350505050565b826001600160a01b0316611e6282611311565b6001600160a01b031614611e885760405162461bcd60e51b815260040161074890613cc8565b6001600160a01b038216611eea5760405162461bcd60e51b8152602060048201526024808201527f4552433732313a207472616e7366657220746f20746865207a65726f206164646044820152637265737360e01b6064820152608401610748565b826001600160a01b0316611efd82611311565b6001600160a01b031614611f235760405162461bcd60e51b815260040161074890613cc8565b6000818152606a6020908152604080832080546001600160a01b03199081169091556001600160a01b0387811680865260698552838620805460001901905590871680865283862080546001019055868652606890945282852080549092168417909155905184937fddf252ad1be2c89b69c2b068fc378daa952ba7f163c4a11628f55a4df523b3ef91a4505050565b33600090815260208190526040902054600114610deb5760405162461bcd60e51b815260040161074890613486565b7f4910fdfa16fed3260ed0e7147f7cc6da11a60208b5b9406d12a635614ffd91435460ff161561201557610b82836126d1565b826001600160a01b03166352d1902d6040518163ffffffff1660e01b8152600401602060405180830381865afa92505050801561206f575060408051601f3d908101601f1916820190925261206c91810190613d0d565b60015b6120d25760405162461bcd60e51b815260206004820152602e60248201527f45524331393637557067726164653a206e657720696d706c656d656e7461746960448201526d6f6e206973206e6f74205555505360901b6064820152608401610748565b600080516020613e1783398151915281146121415760405162461bcd60e51b815260206004820152602960248201527f45524331393637557067726164653a20756e737570706f727465642070726f786044820152681a58589b195555525160ba1b6064820152608401610748565b50610b8283838361276d565b600061215882611311565b905061216382611311565b6000838152606a6020908152604080832080546001600160a01b03199081169091556001600160a01b0385168085526069845282852080546000190190558785526068909352818420805490911690555192935084927fddf252ad1be2c89b69c2b068fc378daa952ba7f163c4a11628f55a4df523b3ef908390a45050565b600154610100900460ff1661224d5760405162461bcd60e51b815260206004820152602b60248201527f496e697469616c697a61626c653a20636f6e7472616374206973206e6f74206960448201526a6e697469616c697a696e6760a81b6064820152608401610748565b606661225983826135d1565b506067610b8282826135d1565b6122703383612792565b6122bc5760405162461bcd60e51b815260206004820152601e60248201527f63616c6c6572206973206e6f74206f776e6572206f72206d616e6167657200006044820152606401610748565b600082815260fc6020908152604091829020600501805460ff191660ff8516908117909155915191825283917f44a3e3f87cade7170a6529283ad66432735cd404d04808c0a95b8c512f4de2b8910160405180910390a25050565b600060fd8161232c6080850160608601613116565b6001600160a01b03168152602081019190915260400160002054156123845760405162461bcd60e51b815260206004820152600e60248201526d1a5bdd081a185cc81b5a5b9d195960921b6044820152606401610748565b61239183610101546127f4565b61010154600090815260fc60209081526040909120906123b3908401846134c4565b60018301916123c3919083613bd6565b506123ce83806134c4565b82916123db919083613bd6565b506123ec60a0840160808501613116565b6004820180546001600160a01b0319166001600160a01b039290921691909117905561241e6080840160608501613116565b6003820180546001600160a01b0319166001600160a01b039290921691909117905561244d60408401846134c4565b600283019161245d919083613bd6565b5060058101805460ff191660011790556101015460fd60006124856080870160608801613116565b6001600160a01b03908116825260208201929092526040016000209190915584167fa529279633b3e95d3b97f0713519bc431c325a7058deb54b49d3c50349d1bdf06124d185806134c4565b610101546040516124e493929190613d26565b60405180910390a261010180549060006124fd836136a6565b90915550506101028054906000612513836136a6565b9190505550600161010154611e47919061353c565b816001600160a01b0316836001600160a01b0316036125895760405162461bcd60e51b815260206004820152601960248201527f4552433732313a20617070726f766520746f2063616c6c6572000000000000006044820152606401610748565b6001600160a01b038381166000818152606b6020908152604080832094871680845294825291829020805460ff191686151590811790915591519182527f17307eab39ab6107e8899845ad3d59bd9653f200f220920489ca2b5937696c31910160405180910390a3505050565b612601848484611e4f565b61260d8484848461297f565b6117435760405162461bcd60e51b815260040161074890613d4a565b6060600061263683612a80565b60010190506000816001600160401b0381111561265557612655613131565b6040519080825280601f01601f19166020018201604052801561267f576020820181803683370190505b5090508181016020015b600019016f181899199a1a9b1b9c1cb0b131b232b360811b600a86061a8153600a850494508461268957509392505050565b60606107136001600160a01b0383166014612b58565b6001600160a01b0381163b61273e5760405162461bcd60e51b815260206004820152602d60248201527f455243313936373a206e657720696d706c656d656e746174696f6e206973206e60448201526c1bdd08184818dbdb9d1c9858dd609a1b6064820152608401610748565b600080516020613e1783398151915280546001600160a01b0319166001600160a01b0392909216919091179055565b61277683612cf3565b6000825111806127835750805b15610b82576117438383612d33565b600061279e8383611dd0565b806127c55750600082815260fc60205260409020600401546001600160a01b038481169116145b80610e3a575050600090815260fc602052604090206005015461010090046001600160a01b0390811691161490565b6001600160a01b03821661284a5760405162461bcd60e51b815260206004820181905260248201527f4552433732313a206d696e7420746f20746865207a65726f20616464726573736044820152606401610748565b6000818152606860205260409020546001600160a01b0316156128af5760405162461bcd60e51b815260206004820152601c60248201527f4552433732313a20746f6b656e20616c7265616479206d696e746564000000006044820152606401610748565b6000818152606860205260409020546001600160a01b0316156129145760405162461bcd60e51b815260206004820152601c60248201527f4552433732313a20746f6b656e20616c7265616479206d696e746564000000006044820152606401610748565b6001600160a01b038216600081815260696020908152604080832080546001019055848352606890915280822080546001600160a01b0319168417905551839291907fddf252ad1be2c89b69c2b068fc378daa952ba7f163c4a11628f55a4df523b3ef908290a45050565b60006001600160a01b0384163b15612a7557604051630a85bd0160e11b81526001600160a01b0385169063150b7a02906129c3903390899088908890600401613d9c565b6020604051808303816000875af19250505080156129fe575060408051601f3d908101601f191682019092526129fb91810190613dcf565b60015b612a5b573d808015612a2c576040519150601f19603f3d011682016040523d82523d6000602084013e612a31565b606091505b508051600003612a535760405162461bcd60e51b815260040161074890613d4a565b805181602001fd5b6001600160e01b031916630a85bd0160e11b149050611e47565b506001949350505050565b60008072184f03e93ff9f4daa797ed6e38ed64bf6a1f0160401b8310612abf5772184f03e93ff9f4daa797ed6e38ed64bf6a1f0160401b830492506040015b6d04ee2d6d415b85acef81000000008310612aeb576d04ee2d6d415b85acef8100000000830492506020015b662386f26fc100008310612b0957662386f26fc10000830492506010015b6305f5e1008310612b21576305f5e100830492506008015b6127108310612b3557612710830492506004015b60648310612b47576064830492506002015b600a83106107135760010192915050565b60606000612b67836002613dec565b612b72906002613e03565b6001600160401b03811115612b8957612b89613131565b6040519080825280601f01601f191660200182016040528015612bb3576020820181803683370190505b509050600360fc1b81600081518110612bce57612bce6134ae565b60200101906001600160f81b031916908160001a905350600f60fb1b81600181518110612bfd57612bfd6134ae565b60200101906001600160f81b031916908160001a9053506000612c21846002613dec565b612c2c906001613e03565b90505b6001811115612ca4576f181899199a1a9b1b9c1cb0b131b232b360811b85600f1660108110612c6057612c606134ae565b1a60f81b828281518110612c7657612c766134ae565b60200101906001600160f81b031916908160001a90535060049490941c93612c9d81613899565b9050612c2f565b508315610e3a5760405162461bcd60e51b815260206004820181905260248201527f537472696e67733a20686578206c656e67746820696e73756666696369656e746044820152606401610748565b612cfc816126d1565b6040516001600160a01b038216907fbc7cd75a20ee27fd9adebab32041f755214dbc6bffa90cc0225b39da2e5c2d3b90600090a250565b6060610e3a8383604051806060016040528060278152602001613e37602791396060600080856001600160a01b031685604051612d70919061350a565b600060405180830381855af49150503d8060008114612dab576040519150601f19603f3d011682016040523d82523d6000602084013e612db0565b606091505b5091509150612dc186838387612dcb565b9695505050505050565b60608315612e3a578251600003612e33576001600160a01b0385163b612e335760405162461bcd60e51b815260206004820152601d60248201527f416464726573733a2063616c6c20746f206e6f6e2d636f6e74726163740000006044820152606401610748565b5081611e47565b611e478383815115612e4f5781518083602001fd5b8060405162461bcd60e51b81526004016107489190613006565b508054612e759061354f565b6000825580601f10612e85575050565b601f016020900490600052602060002090810190610deb9190612ec1565b5080546000825590600052602060002090810190610deb9190612eda565b5b80821115612ed65760008155600101612ec2565b5090565b80821115612ed6576000612eee8282612e69565b50600101612eda565b6001600160e01b031981168114610deb57600080fd5b600060208284031215612f1f57600080fd5b8135610e3a81612ef7565b60008083601f840112612f3c57600080fd5b5081356001600160401b03811115612f5357600080fd5b6020830191508360208260051b8501011115612f6e57600080fd5b9250929050565b60008060208385031215612f8857600080fd5b82356001600160401b03811115612f9e57600080fd5b612faa85828601612f2a565b90969095509350505050565b60005b83811015612fd1578181015183820152602001612fb9565b50506000910152565b60008151808452612ff2816020860160208601612fb6565b601f01601f19169290920160200192915050565b602081526000610e3a6020830184612fda565b60006020828403121561302b57600080fd5b5035919050565b80356001600160a01b038116811461304957600080fd5b919050565b6000806040838503121561306157600080fd5b61306a83613032565b946020939093013593505050565b6000602080830181845280855180835260408601915060408160051b870101925083870160005b828110156130cd57603f198886030184526130bb858351612fda565b9450928501929085019060010161309f565b5092979650505050505050565b6000806000606084860312156130ef57600080fd5b6130f884613032565b925061310660208501613032565b9150604084013590509250925092565b60006020828403121561312857600080fd5b610e3a82613032565b634e487b7160e01b600052604160045260246000fd5b600082601f83011261315857600080fd5b81356001600160401b038082111561317257613172613131565b604051601f8301601f19908116603f0116810190828211818310171561319a5761319a613131565b816040528381528660208588010111156131b357600080fd5b836020870160208301376000602085830101528094505050505092915050565b600080604083850312156131e657600080fd5b82356001600160401b03808211156131fd57600080fd5b61320986838701613147565b9350602085013591508082111561321f57600080fd5b5061322c85828601613147565b9150509250929050565b6000806040838503121561324957600080fd5b61325283613032565b915060208301356001600160401b0381111561326d57600080fd5b61322c85828601613147565b6000806040838503121561328c57600080fd5b61329583613032565b915060208301356001600160401b038111156132b057600080fd5b830160a081860312156132c257600080fd5b809150509250929050565b600080604083850312156132e057600080fd5b6132e983613032565b9150602083013580151581146132c257600080fd5b6000806040838503121561331157600080fd5b8235915061332160208401613032565b90509250929050565b6000806000806080858703121561334057600080fd5b61334985613032565b935061335760208601613032565b92506040850135915060608501356001600160401b0381111561337957600080fd5b61338587828801613147565b91505092959194509250565b6000806000604084860312156133a657600080fd5b6133af84613032565b925060208401356001600160401b038111156133ca57600080fd5b6133d686828701612f2a565b9497909650939450505050565b6000806000806000606086880312156133fb57600080fd5b8535945060208601356001600160401b038082111561341957600080fd5b61342589838a01612f2a565b9096509450604088013591508082111561343e57600080fd5b5061344b88828901612f2a565b969995985093965092949392505050565b6000806040838503121561346f57600080fd5b61347883613032565b915061332160208401613032565b6020808252600e908201526d1b9bdd0b585d5d1a1bdc9a5e995960921b604082015260600190565b634e487b7160e01b600052603260045260246000fd5b6000808335601e198436030181126134db57600080fd5b8301803591506001600160401b038211156134f557600080fd5b602001915036819003821315612f6e57600080fd5b6000825161351c818460208701612fb6565b9190910192915050565b634e487b7160e01b600052601160045260246000fd5b8181038181111561071357610713613526565b600181811c9082168061356357607f821691505b602082108103610cd857634e487b7160e01b600052602260045260246000fd5b601f821115610b8257600081815260208120601f850160051c810160208610156135aa5750805b601f850160051c820191505b818110156135c9578281556001016135b6565b505050505050565b81516001600160401b038111156135ea576135ea613131565b6135fe816135f8845461354f565b84613583565b602080601f831160018114613633576000841561361b5750858301515b600019600386901b1c1916600185901b1785556135c9565b600085815260208120601f198616915b8281101561366257888601518255948401946001909101908401613643565b50858210156136805787850151600019600388901b60f8161c191681555b5050505050600190811b01905550565b634e487b7160e01b600052603160045260246000fd5b6000600182016136b8576136b8613526565b5060010190565b81835281816020850137506000828201602090810191909152601f909101601f19169091010190565b81835260006020808501808196508560051b810191508460005b8781101561376c5782840389528135601e1988360301811261372357600080fd5b870185810190356001600160401b0381111561373e57600080fd5b80360382131561374d57600080fd5b6137588682846136bf565b9a87019a9550505090840190600101613702565b5091979650505050505050565b602081526000611e476020830184866136e8565b6020808252602d908201527f4552433732313a2063616c6c6572206973206e6f7420746f6b656e206f776e6560408201526c1c881bdc88185c1c1c9bdd9959609a1b606082015260800190565b6020808252602c908201527f46756e6374696f6e206d7573742062652063616c6c6564207468726f7567682060408201526b19195b1959d85d1958d85b1b60a21b606082015260800190565b6020808252602c908201527f46756e6374696f6e206d7573742062652063616c6c6564207468726f7567682060408201526b6163746976652070726f787960a01b606082015260800190565b6020808252600d908201526c373796b832b936b4b9b9b4b7b760991b604082015260600190565b6000816138a8576138a8613526565b506000190190565b600081546138bd8161354f565b600182811680156138d557600181146138ea57613919565b60ff1984168752821515830287019450613919565b8560005260208060002060005b858110156139105781548a8201529084019082016138f7565b50505082870194505b5050505092915050565b641134b2111d60d91b81528651600090613944816005850160208c01612fb6565b68161131b7b232911d1160b91b600591840191820152613967600e8201896138b0565b691116113730b6b2911d1160b11b81529050613986600a8201886138b0565b691116113334b936911d1160b11b815290506139a5600a8201876138b0565b6811161134b7ba111d1160b91b815285519091506139ca816009840160208901612fb6565b6c11161136b0b730b3b2b9111d1160991b6009929091019182015283516139f8816016840160208801612fb6565b61088b60f21b6016929091019182015260180198975050505050505050565b681137bbb732b9111d1160b91b81528351600090613a3c816009850160208901612fb6565b6d11161130b8383937bb32b2111d1160911b6009918401918201528451613a6a816017840160208901612fb6565b6a11161139ba30ba3ab9911d60a91b601792909101918201528351613a96816022840160208801612fb6565b0160220195945050505050565b60008451613ab5818460208901612fb6565b6f3d90113a3930b4ba2fba3cb832911d1160811b908301908152613adc60108201866138b0565b6a1116113b30b63ab2911d1160a91b81529050613afc600b8201856138b0565b6222207d60e81b81526003019695505050505050565b60008251613b24818460208701612fb6565b600b60fa1b920191825250600101919050565b60008251613b49818460208701612fb6565b605d60f81b920191825250600101919050565b607b60f81b815260008451613b78816001850160208901612fb6565b845190830190613b8f816001840160208901612fb6565b8451910190613ba5816001840160208801612fb6565b607d60f81b6001929091019182015260020195945050505050565b60008235609e1983360301811261351c57600080fd5b6001600160401b03831115613bed57613bed613131565b613c0183613bfb835461354f565b83613583565b6000601f841160018114613c355760008515613c1d5750838201355b600019600387901b1c1916600186901b178355613c8f565b600083815260209020601f19861690835b82811015613c665786850135825560209485019460019092019101613c46565b5086821015613c835760001960f88860031b161c19848701351681555b505060018560011b0183555b5050505050565b604081526000613caa6040830186886136e8565b8281036020840152613cbd8185876136e8565b979650505050505050565b60208082526025908201527f4552433732313a207472616e736665722066726f6d20696e636f72726563742060408201526437bbb732b960d91b606082015260800190565b600060208284031215613d1f57600080fd5b5051919050565b604081526000613d3a6040830185876136bf565b9050826020830152949350505050565b60208082526032908201527f4552433732313a207472616e7366657220746f206e6f6e20455243373231526560408201527131b2b4bb32b91034b6b83632b6b2b73a32b960711b606082015260800190565b6001600160a01b0385811682528416602082015260408101839052608060608201819052600090612dc190830184612fda565b600060208284031215613de157600080fd5b8151610e3a81612ef7565b808202811582820484141761071357610713613526565b808201808211156107135761071361352656fe360894a13ba1a3210667c828492db98dca3e2076cc3735a920a3ca505d382bbc416464726573733a206c6f772d6c6576656c2064656c65676174652063616c6c206661696c6564a2646970667358221220083adc9025693f1f71399b7a0ea8e86765c218199a4560e494e94f39143e27ed64736f6c63430008140033",
    "linkReferences": {}
  },
  "methodIdentifiers": {
    "addKeys(string[])": "91efe4cd",
    "addMinter(address)": "983b2d56",
    "addPermission(address)": "4d0a5dbd",
    "approve(address,uint256)": "095ea7b3",
    "balanceOf(address)": "70a08231",
    "batchMint(address,(string,string,string,address,address)[])": "cb46485a",
    "burn(uint256)": "42966c68",
    "deny(address)": "9c52a7f1",
    "extend(uint256,string[],string[])": "cb67d3c6",
    "getApproved(uint256)": "081812fc",
    "getKeys()": "2150c518",
    "initialize(string,string)": "4cd88b76",
    "iotOf(uint256)": "71b6aa39",
    "isApprovedForAll(address,address)": "e985e9c5",
    "isEnable(uint256)": "5bf5be20",
    "isIot(address,uint256)": "3e209513",
    "mint(address,(string,string,string,address,address))": "6bdc7f65",
    "name()": "06fdde03",
    "ownerOf(uint256)": "6352211e",
    "proxiableUUID()": "52d1902d",
    "removeKeys(string[])": "02fb7e73",
    "safeTransferFrom(address,address,uint256)": "42842e0e",
    "safeTransferFrom(address,address,uint256,bytes)": "b88d4fde",
    "setApprovalForAll(address,bool)": "a22cb465",
    "setApproveManager(uint256,address)": "b7cda825",
    "start(uint256)": "95805dad",
    "stop(uint256)": "6299f8cf",
    "supply()": "047fc9aa",
    "supportsInterface(bytes4)": "01ffc9a7",
    "symbol()": "95d89b41",
    "tokenIdByIot(address)": "419d1b3e",
    "tokenURI(uint256)": "c87b56dd",
    "transferFrom(address,address,uint256)": "23b872dd",
    "upgradeTo(address)": "3659cfe6",
    "upgradeToAndCall(address,bytes)": "4f1ef286"
  },
  "id": 52
}